{
  "contractName": "Dex",
  "abi": [
    {
      "anonymous": false,
      "inputs": [
        {
          "indexed": true,
          "internalType": "address",
          "name": "previousOwner",
          "type": "address"
        },
        {
          "indexed": true,
          "internalType": "address",
          "name": "newOwner",
          "type": "address"
        }
      ],
      "name": "OwnershipTransferred",
      "type": "event"
    },
    {
      "inputs": [
        {
          "internalType": "bytes32",
          "name": "ticker",
          "type": "bytes32"
        },
        {
          "internalType": "address",
          "name": "tokenAddress",
          "type": "address"
        }
      ],
      "name": "addToken",
      "outputs": [],
      "stateMutability": "nonpayable",
      "type": "function"
    },
    {
      "inputs": [
        {
          "internalType": "address",
          "name": "",
          "type": "address"
        },
        {
          "internalType": "bytes32",
          "name": "",
          "type": "bytes32"
        }
      ],
      "name": "balances",
      "outputs": [
        {
          "internalType": "uint256",
          "name": "",
          "type": "uint256"
        }
      ],
      "stateMutability": "view",
      "type": "function"
    },
    {
      "inputs": [
        {
          "internalType": "uint256",
          "name": "amount",
          "type": "uint256"
        },
        {
          "internalType": "bytes32",
          "name": "ticker",
          "type": "bytes32"
        }
      ],
      "name": "deposit",
      "outputs": [],
      "stateMutability": "nonpayable",
      "type": "function"
    },
    {
      "inputs": [],
      "name": "depositEth",
      "outputs": [],
      "stateMutability": "payable",
      "type": "function"
    },
    {
      "inputs": [],
      "name": "nextOrderId",
      "outputs": [
        {
          "internalType": "uint256",
          "name": "",
          "type": "uint256"
        }
      ],
      "stateMutability": "view",
      "type": "function"
    },
    {
      "inputs": [
        {
          "internalType": "bytes32",
          "name": "",
          "type": "bytes32"
        },
        {
          "internalType": "uint256",
          "name": "",
          "type": "uint256"
        },
        {
          "internalType": "uint256",
          "name": "",
          "type": "uint256"
        }
      ],
      "name": "orderBook",
      "outputs": [
        {
          "internalType": "uint256",
          "name": "id",
          "type": "uint256"
        },
        {
          "internalType": "address",
          "name": "trader",
          "type": "address"
        },
        {
          "internalType": "enum Dex.Side",
          "name": "side",
          "type": "uint8"
        },
        {
          "internalType": "bytes32",
          "name": "ticker",
          "type": "bytes32"
        },
        {
          "internalType": "uint256",
          "name": "amount",
          "type": "uint256"
        },
        {
          "internalType": "uint256",
          "name": "price",
          "type": "uint256"
        },
        {
          "internalType": "uint256",
          "name": "filled",
          "type": "uint256"
        }
      ],
      "stateMutability": "view",
      "type": "function"
    },
    {
      "inputs": [],
      "name": "owner",
      "outputs": [
        {
          "internalType": "address",
          "name": "",
          "type": "address"
        }
      ],
      "stateMutability": "view",
      "type": "function"
    },
    {
      "inputs": [],
      "name": "renounceOwnership",
      "outputs": [],
      "stateMutability": "nonpayable",
      "type": "function"
    },
    {
      "inputs": [
        {
          "internalType": "uint256",
          "name": "",
          "type": "uint256"
        }
      ],
      "name": "tokenList",
      "outputs": [
        {
          "internalType": "bytes32",
          "name": "",
          "type": "bytes32"
        }
      ],
      "stateMutability": "view",
      "type": "function"
    },
    {
      "inputs": [
        {
          "internalType": "bytes32",
          "name": "",
          "type": "bytes32"
        }
      ],
      "name": "tokenMapping",
      "outputs": [
        {
          "internalType": "bytes32",
          "name": "ticker",
          "type": "bytes32"
        },
        {
          "internalType": "address",
          "name": "tokenAddress",
          "type": "address"
        }
      ],
      "stateMutability": "view",
      "type": "function"
    },
    {
      "inputs": [
        {
          "internalType": "address",
          "name": "newOwner",
          "type": "address"
        }
      ],
      "name": "transferOwnership",
      "outputs": [],
      "stateMutability": "nonpayable",
      "type": "function"
    },
    {
      "inputs": [
        {
          "internalType": "uint256",
          "name": "amount",
          "type": "uint256"
        },
        {
          "internalType": "bytes32",
          "name": "ticker",
          "type": "bytes32"
        }
      ],
      "name": "withdraw",
      "outputs": [],
      "stateMutability": "nonpayable",
      "type": "function"
    },
    {
      "inputs": [
        {
          "internalType": "uint256",
          "name": "amount",
          "type": "uint256"
        }
      ],
      "name": "withdrawEth",
      "outputs": [],
      "stateMutability": "nonpayable",
      "type": "function"
    },
    {
      "inputs": [
        {
          "internalType": "bytes32",
          "name": "ticker",
          "type": "bytes32"
        },
        {
          "internalType": "enum Dex.Side",
          "name": "side",
          "type": "uint8"
        }
      ],
      "name": "getOrderBook",
      "outputs": [
        {
          "components": [
            {
              "internalType": "uint256",
              "name": "id",
              "type": "uint256"
            },
            {
              "internalType": "address",
              "name": "trader",
              "type": "address"
            },
            {
              "internalType": "enum Dex.Side",
              "name": "side",
              "type": "uint8"
            },
            {
              "internalType": "bytes32",
              "name": "ticker",
              "type": "bytes32"
            },
            {
              "internalType": "uint256",
              "name": "amount",
              "type": "uint256"
            },
            {
              "internalType": "uint256",
              "name": "price",
              "type": "uint256"
            },
            {
              "internalType": "uint256",
              "name": "filled",
              "type": "uint256"
            }
          ],
          "internalType": "struct Dex.Order[]",
          "name": "",
          "type": "tuple[]"
        }
      ],
      "stateMutability": "view",
      "type": "function"
    },
    {
      "inputs": [
        {
          "internalType": "enum Dex.Side",
          "name": "side",
          "type": "uint8"
        },
        {
          "internalType": "bytes32",
          "name": "ticker",
          "type": "bytes32"
        },
        {
          "internalType": "uint256",
          "name": "amount",
          "type": "uint256"
        },
        {
          "internalType": "uint256",
          "name": "price",
          "type": "uint256"
        }
      ],
      "name": "createLimitOrder",
      "outputs": [],
      "stateMutability": "nonpayable",
      "type": "function"
    },
    {
      "inputs": [
        {
          "internalType": "enum Dex.Side",
          "name": "side",
          "type": "uint8"
        },
        {
          "internalType": "bytes32",
          "name": "ticker",
          "type": "bytes32"
        },
        {
          "internalType": "uint256",
          "name": "amount",
          "type": "uint256"
        }
      ],
      "name": "createMarketOrder",
      "outputs": [],
      "stateMutability": "nonpayable",
      "type": "function"
    }
  ],
  "bytecode": "0x608060405260006004553480156200001657600080fd5b50600062000029620000cd60201b60201c565b9050806000806101000a81548173ffffffffffffffffffffffffffffffffffffffff021916908373ffffffffffffffffffffffffffffffffffffffff1602179055508073ffffffffffffffffffffffffffffffffffffffff16600073ffffffffffffffffffffffffffffffffffffffff167f8be0079c531659141344cd1fd0a4f28419497f9722a3daafe3b4186f6b6457e060405160405180910390a350620000d5565b600033905090565b6140b880620000e56000396000f3fe6080604052600436106100f35760003560e01c80639776aacf1161008a578063ba58ea6811610059578063ba58ea681461030e578063c311d0491461034b578063c9630cb014610374578063f2fde38b1461039d576100f3565b80639776aacf1461025657806399ec2f1c1461027f5780639ead7222146102a8578063a8d2021a146102e5576100f3565b8063667cb4ba116100c6578063667cb4ba146101ad5780636f3b62f9146101eb578063715018a6146102145780638da5cb5b1461022b576100f3565b80630bb431b6146100f85780631f14df691461013b5780632a58b33014610178578063439370b1146101a3575b600080fd5b34801561010457600080fd5b5061011f600480360381019061011a91906136b7565b6103c6565b6040516101329796959493929190613c1c565b60405180910390f35b34801561014757600080fd5b50610162600480360381019061015d91906135b1565b61045f565b60405161016f9190613c01565b60405180910390f35b34801561018457600080fd5b5061018d610484565b60405161019a9190613c01565b60405180910390f35b6101ab61048a565b005b3480156101b957600080fd5b506101d460048036038101906101cf9190613616565b610583565b6040516101e2929190613b38565b60405180910390f35b3480156101f757600080fd5b50610212600480360381019061020d9190613755565b6105c7565b005b34801561022057600080fd5b506102296114aa565b005b34801561023757600080fd5b506102406115e4565b60405161024d9190613a80565b60405180910390f35b34801561026257600080fd5b5061027d6004803603810190610278919061363f565b61160d565b005b34801561028b57600080fd5b506102a660048036038101906102a19190613706565b611748565b005b3480156102b457600080fd5b506102cf60048036038101906102ca91906137b8565b612a44565b6040516102dc9190613b1d565b60405180910390f35b3480156102f157600080fd5b5061030c600480360381019061030791906137e1565b612a68565b005b34801561031a57600080fd5b506103356004803603810190610330919061367b565b612d22565b6040516103429190613afb565b60405180910390f35b34801561035757600080fd5b50610372600480360381019061036d91906137b8565b612eed565b005b34801561038057600080fd5b5061039b600480360381019061039691906137e1565b613103565b005b3480156103a957600080fd5b506103c460048036038101906103bf9190613588565b61332c565b005b600560205282600052604060002060205281600052604060002081815481106103ee57600080fd5b906000526020600020906006020160009250925050508060000154908060010160009054906101000a900473ffffffffffffffffffffffffffffffffffffffff16908060010160149054906101000a900460ff16908060020154908060030154908060040154908060050154905087565b6003602052816000526040600020602052806000526040600020600091509150505481565b60045481565b61050d34600360003373ffffffffffffffffffffffffffffffffffffffff1673ffffffffffffffffffffffffffffffffffffffff16815260200190815260200160002060007f45544800000000000000000000000000000000000000000000000000000000008152602001908152602001600020546134d590919063ffffffff16565b600360003373ffffffffffffffffffffffffffffffffffffffff1673ffffffffffffffffffffffffffffffffffffffff16815260200190815260200160002060007f4554480000000000000000000000000000000000000000000000000000000000815260200190815260200160002081905550565b60016020528060005260406000206000915090508060000154908060010160009054906101000a900473ffffffffffffffffffffffffffffffffffffffff16905082565b60006001811115610601577f4e487b7100000000000000000000000000000000000000000000000000000000600052602160045260246000fd5b84600181111561063a577f4e487b7100000000000000000000000000000000000000000000000000000000600052602160045260246000fd5b14156106d45761065381836134eb90919063ffffffff16565b600360003373ffffffffffffffffffffffffffffffffffffffff1673ffffffffffffffffffffffffffffffffffffffff16815260200190815260200160002060007f455448000000000000000000000000000000000000000000000000000000000081526020019081526020016000205410156106cf57600080fd5b6107ab565b60018081111561070d577f4e487b7100000000000000000000000000000000000000000000000000000000600052602160045260246000fd5b846001811115610746577f4e487b7100000000000000000000000000000000000000000000000000000000600052602160045260246000fd5b14156107aa5781600360003373ffffffffffffffffffffffffffffffffffffffff1673ffffffffffffffffffffffffffffffffffffffff16815260200190815260200160002060008581526020019081526020016000205410156107a957600080fd5b5b5b60006005600085815260200190815260200160002060008660018111156107fb577f4e487b7100000000000000000000000000000000000000000000000000000000600052602160045260246000fd5b815260200190815260200160002090506000816040518060e0016040528060045481526020013373ffffffffffffffffffffffffffffffffffffffff168152602001886001811115610876577f4e487b7100000000000000000000000000000000000000000000000000000000600052602160045260246000fd5b81526020018781526020018681526020018581526020018381525090806001815401808255809150506001900390600052602060002090600602016000909190919091506000820151816000015560208201518160010160006101000a81548173ffffffffffffffffffffffffffffffffffffffff021916908373ffffffffffffffffffffffffffffffffffffffff16021790555060408201518160010160146101000a81548160ff0219169083600181111561095c577f4e487b7100000000000000000000000000000000000000000000000000000000600052602160045260246000fd5b0217905550606082015181600201556080820151816003015560a0820151816004015560c08201518160050155505060008083805490501161099f5760006109b1565b600183805490506109b09190613d90565b5b9050600060018111156109ed577f4e487b7100000000000000000000000000000000000000000000000000000000600052602160045260246000fd5b876001811115610a26577f4e487b7100000000000000000000000000000000000000000000000000000000600052602160045260246000fd5b1415610f20575b6000811115610f1b57828181548110610a6f577f4e487b7100000000000000000000000000000000000000000000000000000000600052603260045260246000fd5b90600052602060002090600602016004015483600183610a8f9190613d90565b81548110610ac6577f4e487b7100000000000000000000000000000000000000000000000000000000600052603260045260246000fd5b9060005260206000209060060201600401541115610ae357610f1b565b600083600183610af39190613d90565b81548110610b2a577f4e487b7100000000000000000000000000000000000000000000000000000000600052603260045260246000fd5b90600052602060002090600602016040518060e0016040529081600082015481526020016001820160009054906101000a900473ffffffffffffffffffffffffffffffffffffffff1673ffffffffffffffffffffffffffffffffffffffff1673ffffffffffffffffffffffffffffffffffffffff1681526020016001820160149054906101000a900460ff166001811115610bee577f4e487b7100000000000000000000000000000000000000000000000000000000600052602160045260246000fd5b6001811115610c26577f4e487b7100000000000000000000000000000000000000000000000000000000600052602160045260246000fd5b81526020016002820154815260200160038201548152602001600482015481526020016005820154815250509050838281548110610c8d577f4e487b7100000000000000000000000000000000000000000000000000000000600052603260045260246000fd5b906000526020600020906006020184600184610ca99190613d90565b81548110610ce0577f4e487b7100000000000000000000000000000000000000000000000000000000600052603260045260246000fd5b9060005260206000209060060201600082015481600001556001820160009054906101000a900473ffffffffffffffffffffffffffffffffffffffff168160010160006101000a81548173ffffffffffffffffffffffffffffffffffffffff021916908373ffffffffffffffffffffffffffffffffffffffff1602179055506001820160149054906101000a900460ff168160010160146101000a81548160ff02191690836001811115610dbd577f4e487b7100000000000000000000000000000000000000000000000000000000600052602160045260246000fd5b02179055506002820154816002015560038201548160030155600482015481600401556005820154816005015590505080848381548110610e27577f4e487b7100000000000000000000000000000000000000000000000000000000600052603260045260246000fd5b90600052602060002090600602016000820151816000015560208201518160010160006101000a81548173ffffffffffffffffffffffffffffffffffffffff021916908373ffffffffffffffffffffffffffffffffffffffff16021790555060408201518160010160146101000a81548160ff02191690836001811115610ed7577f4e487b7100000000000000000000000000000000000000000000000000000000600052602160045260246000fd5b0217905550606082015181600201556080820151816003015560a0820151816004015560c082015181600501559050508180610f1290613e3b565b92505050610a2d565b611489565b600180811115610f59577f4e487b7100000000000000000000000000000000000000000000000000000000600052602160045260246000fd5b876001811115610f92577f4e487b7100000000000000000000000000000000000000000000000000000000600052602160045260246000fd5b1415611488575b600081111561148757828181548110610fdb577f4e487b7100000000000000000000000000000000000000000000000000000000600052603260045260246000fd5b90600052602060002090600602016004015483600183610ffb9190613d90565b81548110611032577f4e487b7100000000000000000000000000000000000000000000000000000000600052603260045260246000fd5b906000526020600020906006020160040154101561104f57611487565b60008360018361105f9190613d90565b81548110611096577f4e487b7100000000000000000000000000000000000000000000000000000000600052603260045260246000fd5b90600052602060002090600602016040518060e0016040529081600082015481526020016001820160009054906101000a900473ffffffffffffffffffffffffffffffffffffffff1673ffffffffffffffffffffffffffffffffffffffff1673ffffffffffffffffffffffffffffffffffffffff1681526020016001820160149054906101000a900460ff16600181111561115a577f4e487b7100000000000000000000000000000000000000000000000000000000600052602160045260246000fd5b6001811115611192577f4e487b7100000000000000000000000000000000000000000000000000000000600052602160045260246000fd5b815260200160028201548152602001600382015481526020016004820154815260200160058201548152505090508382815481106111f9577f4e487b7100000000000000000000000000000000000000000000000000000000600052603260045260246000fd5b9060005260206000209060060201846001846112159190613d90565b8154811061124c577f4e487b7100000000000000000000000000000000000000000000000000000000600052603260045260246000fd5b9060005260206000209060060201600082015481600001556001820160009054906101000a900473ffffffffffffffffffffffffffffffffffffffff168160010160006101000a81548173ffffffffffffffffffffffffffffffffffffffff021916908373ffffffffffffffffffffffffffffffffffffffff1602179055506001820160149054906101000a900460ff168160010160146101000a81548160ff02191690836001811115611329577f4e487b7100000000000000000000000000000000000000000000000000000000600052602160045260246000fd5b02179055506002820154816002015560038201548160030155600482015481600401556005820154816005015590505080848381548110611393577f4e487b7100000000000000000000000000000000000000000000000000000000600052603260045260246000fd5b90600052602060002090600602016000820151816000015560208201518160010160006101000a81548173ffffffffffffffffffffffffffffffffffffffff021916908373ffffffffffffffffffffffffffffffffffffffff16021790555060408201518160010160146101000a81548160ff02191690836001811115611443577f4e487b7100000000000000000000000000000000000000000000000000000000600052602160045260246000fd5b0217905550606082015181600201556080820151816003015560a0820151816004015560c08201518160050155905050818061147e90613e3b565b92505050610f99565b5b5b6004600081548092919061149c90613e65565b919050555050505050505050565b6114b2613501565b73ffffffffffffffffffffffffffffffffffffffff166114d06115e4565b73ffffffffffffffffffffffffffffffffffffffff1614611526576040517f08c379a000000000000000000000000000000000000000000000000000000000815260040161151d90613bc1565b60405180910390fd5b600073ffffffffffffffffffffffffffffffffffffffff1660008054906101000a900473ffffffffffffffffffffffffffffffffffffffff1673ffffffffffffffffffffffffffffffffffffffff167f8be0079c531659141344cd1fd0a4f28419497f9722a3daafe3b4186f6b6457e060405160405180910390a360008060006101000a81548173ffffffffffffffffffffffffffffffffffffffff021916908373ffffffffffffffffffffffffffffffffffffffff160217905550565b60008060009054906101000a900473ffffffffffffffffffffffffffffffffffffffff16905090565b611615613501565b73ffffffffffffffffffffffffffffffffffffffff166116336115e4565b73ffffffffffffffffffffffffffffffffffffffff1614611689576040517f08c379a000000000000000000000000000000000000000000000000000000000815260040161168090613bc1565b60405180910390fd5b60405180604001604052808381526020018273ffffffffffffffffffffffffffffffffffffffff16815250600160008481526020019081526020016000206000820151816000015560208201518160010160006101000a81548173ffffffffffffffffffffffffffffffffffffffff021916908373ffffffffffffffffffffffffffffffffffffffff16021790555090505060028290806001815401808255809150506001900390600052602060002001600090919091909150555050565b600180811115611781577f4e487b7100000000000000000000000000000000000000000000000000000000600052602160045260246000fd5b8360018111156117ba577f4e487b7100000000000000000000000000000000000000000000000000000000600052602160045260246000fd5b14156118545780600360003373ffffffffffffffffffffffffffffffffffffffff1673ffffffffffffffffffffffffffffffffffffffff1681526020019081526020016000206000848152602001908152602001600020541015611853576040517f08c379a000000000000000000000000000000000000000000000000000000000815260040161184a90613ba1565b60405180910390fd5b5b600080600181111561188f577f4e487b7100000000000000000000000000000000000000000000000000000000600052602160045260246000fd5b8460018111156118c8577f4e487b7100000000000000000000000000000000000000000000000000000000600052602160045260246000fd5b14156118d757600190506118dc565b600090505b60006005600085815260200190815260200160002060008381526020019081526020016000209050600080600090505b82805490508110801561191e57508482105b1561270c576000611938838761350990919063ffffffff16565b905060006119e3858481548110611978577f4e487b7100000000000000000000000000000000000000000000000000000000600052603260045260246000fd5b9060005260206000209060060201600501548685815481106119c3577f4e487b7100000000000000000000000000000000000000000000000000000000600052603260045260246000fd5b90600052602060002090600602016003015461350990919063ffffffff16565b90506000828211156119f7578290506119fb565b8190505b611a0e81866134d590919063ffffffff16565b9450611a6d81878681548110611a4d577f4e487b7100000000000000000000000000000000000000000000000000000000600052603260045260246000fd5b9060005260206000209060060201600501546134d590919063ffffffff16565b868581548110611aa6577f4e487b7100000000000000000000000000000000000000000000000000000000600052603260045260246000fd5b9060005260206000209060060201600501819055506000611b1a878681548110611af9577f4e487b7100000000000000000000000000000000000000000000000000000000600052603260045260246000fd5b906000526020600020906006020160040154836134eb90919063ffffffff16565b905060006001811115611b56577f4e487b7100000000000000000000000000000000000000000000000000000000600052602160045260246000fd5b8b6001811115611b8f577f4e487b7100000000000000000000000000000000000000000000000000000000600052602160045260246000fd5b141561217757611bf2878681548110611bd1577f4e487b7100000000000000000000000000000000000000000000000000000000600052603260045260246000fd5b906000526020600020906006020160040154836134eb90919063ffffffff16565b600360003373ffffffffffffffffffffffffffffffffffffffff1673ffffffffffffffffffffffffffffffffffffffff16815260200190815260200160002060007f45544800000000000000000000000000000000000000000000000000000000008152602001908152602001600020541015611c6e57600080fd5b611cd182600360003373ffffffffffffffffffffffffffffffffffffffff1673ffffffffffffffffffffffffffffffffffffffff16815260200190815260200160002060008d8152602001908152602001600020546134d590919063ffffffff16565b600360003373ffffffffffffffffffffffffffffffffffffffff1673ffffffffffffffffffffffffffffffffffffffff16815260200190815260200160002060008c815260200190815260200160002081905550611da881600360003373ffffffffffffffffffffffffffffffffffffffff1673ffffffffffffffffffffffffffffffffffffffff16815260200190815260200160002060007f455448000000000000000000000000000000000000000000000000000000000081526020019081526020016000205461350990919063ffffffff16565b600360003373ffffffffffffffffffffffffffffffffffffffff1673ffffffffffffffffffffffffffffffffffffffff16815260200190815260200160002060007f4554480000000000000000000000000000000000000000000000000000000000815260200190815260200160002081905550611ee982600360008a8981548110611e5d577f4e487b7100000000000000000000000000000000000000000000000000000000600052603260045260246000fd5b906000526020600020906006020160010160009054906101000a900473ffffffffffffffffffffffffffffffffffffffff1673ffffffffffffffffffffffffffffffffffffffff1673ffffffffffffffffffffffffffffffffffffffff16815260200190815260200160002060008d81526020019081526020016000205461350990919063ffffffff16565b60036000898881548110611f26577f4e487b7100000000000000000000000000000000000000000000000000000000600052603260045260246000fd5b906000526020600020906006020160010160009054906101000a900473ffffffffffffffffffffffffffffffffffffffff1673ffffffffffffffffffffffffffffffffffffffff1673ffffffffffffffffffffffffffffffffffffffff16815260200190815260200160002060008c81526020019081526020016000208190555061209481600360008a8981548110611fe8577f4e487b7100000000000000000000000000000000000000000000000000000000600052603260045260246000fd5b906000526020600020906006020160010160009054906101000a900473ffffffffffffffffffffffffffffffffffffffff1673ffffffffffffffffffffffffffffffffffffffff1673ffffffffffffffffffffffffffffffffffffffff16815260200190815260200160002060007f45544800000000000000000000000000000000000000000000000000000000008152602001908152602001600020546134d590919063ffffffff16565b600360008988815481106120d1577f4e487b7100000000000000000000000000000000000000000000000000000000600052603260045260246000fd5b906000526020600020906006020160010160009054906101000a900473ffffffffffffffffffffffffffffffffffffffff1673ffffffffffffffffffffffffffffffffffffffff1673ffffffffffffffffffffffffffffffffffffffff16815260200190815260200160002060007f45544800000000000000000000000000000000000000000000000000000000008152602001908152602001600020819055506126f5565b6001808111156121b0577f4e487b7100000000000000000000000000000000000000000000000000000000600052602160045260246000fd5b8b60018111156121e9577f4e487b7100000000000000000000000000000000000000000000000000000000600052602160045260246000fd5b14156126f45761225282600360003373ffffffffffffffffffffffffffffffffffffffff1673ffffffffffffffffffffffffffffffffffffffff16815260200190815260200160002060008d81526020019081526020016000205461350990919063ffffffff16565b600360003373ffffffffffffffffffffffffffffffffffffffff1673ffffffffffffffffffffffffffffffffffffffff16815260200190815260200160002060008c81526020019081526020016000208190555061232981600360003373ffffffffffffffffffffffffffffffffffffffff1673ffffffffffffffffffffffffffffffffffffffff16815260200190815260200160002060007f45544800000000000000000000000000000000000000000000000000000000008152602001908152602001600020546134d590919063ffffffff16565b600360003373ffffffffffffffffffffffffffffffffffffffff1673ffffffffffffffffffffffffffffffffffffffff16815260200190815260200160002060007f455448000000000000000000000000000000000000000000000000000000000081526020019081526020016000208190555061246a82600360008a89815481106123de577f4e487b7100000000000000000000000000000000000000000000000000000000600052603260045260246000fd5b906000526020600020906006020160010160009054906101000a900473ffffffffffffffffffffffffffffffffffffffff1673ffffffffffffffffffffffffffffffffffffffff1673ffffffffffffffffffffffffffffffffffffffff16815260200190815260200160002060008d8152602001908152602001600020546134d590919063ffffffff16565b600360008988815481106124a7577f4e487b7100000000000000000000000000000000000000000000000000000000600052603260045260246000fd5b906000526020600020906006020160010160009054906101000a900473ffffffffffffffffffffffffffffffffffffffff1673ffffffffffffffffffffffffffffffffffffffff1673ffffffffffffffffffffffffffffffffffffffff16815260200190815260200160002060008c81526020019081526020016000208190555061261581600360008a8981548110612569577f4e487b7100000000000000000000000000000000000000000000000000000000600052603260045260246000fd5b906000526020600020906006020160010160009054906101000a900473ffffffffffffffffffffffffffffffffffffffff1673ffffffffffffffffffffffffffffffffffffffff1673ffffffffffffffffffffffffffffffffffffffff16815260200190815260200160002060007f455448000000000000000000000000000000000000000000000000000000000081526020019081526020016000205461350990919063ffffffff16565b60036000898881548110612652577f4e487b7100000000000000000000000000000000000000000000000000000000600052603260045260246000fd5b906000526020600020906006020160010160009054906101000a900473ffffffffffffffffffffffffffffffffffffffff1673ffffffffffffffffffffffffffffffffffffffff1673ffffffffffffffffffffffffffffffffffffffff16815260200190815260200160002060007f45544800000000000000000000000000000000000000000000000000000000008152602001908152602001600020819055505b5b50505050808061270490613e65565b91505061190c565b505b600082805490501180156127b7575081600081548110612757577f4e487b7100000000000000000000000000000000000000000000000000000000600052603260045260246000fd5b906000526020600020906006020160030154826000815481106127a3577f4e487b7100000000000000000000000000000000000000000000000000000000600052603260045260246000fd5b906000526020600020906006020160050154145b15612a3c5760005b600183805490506127d09190613d90565b81101561298357826001826127e59190613ce0565b8154811061281c577f4e487b7100000000000000000000000000000000000000000000000000000000600052603260045260246000fd5b9060005260206000209060060201838281548110612863577f4e487b7100000000000000000000000000000000000000000000000000000000600052603260045260246000fd5b9060005260206000209060060201600082015481600001556001820160009054906101000a900473ffffffffffffffffffffffffffffffffffffffff168160010160006101000a81548173ffffffffffffffffffffffffffffffffffffffff021916908373ffffffffffffffffffffffffffffffffffffffff1602179055506001820160149054906101000a900460ff168160010160146101000a81548160ff02191690836001811115612940577f4e487b7100000000000000000000000000000000000000000000000000000000600052602160045260246000fd5b021790555060028201548160020155600382015481600301556004820154816004015560058201548160050155905050808061297b90613e65565b9150506127bf565b50818054806129bb577f4e487b7100000000000000000000000000000000000000000000000000000000600052603160045260246000fd5b60019003818190600052602060002090600602016000808201600090556001820160006101000a81549073ffffffffffffffffffffffffffffffffffffffff02191690556001820160146101000a81549060ff021916905560028201600090556003820160009055600482016000905560058201600090555050905561270e565b505050505050565b60028181548110612a5457600080fd5b906000526020600020016000915090505481565b80600073ffffffffffffffffffffffffffffffffffffffff166001600083815260200190815260200160002060010160009054906101000a900473ffffffffffffffffffffffffffffffffffffffff1673ffffffffffffffffffffffffffffffffffffffff161415612b0f576040517f08c379a0000000000000000000000000000000000000000000000000000000008152600401612b0690613be1565b60405180910390fd5b82600360003373ffffffffffffffffffffffffffffffffffffffff1673ffffffffffffffffffffffffffffffffffffffff1681526020019081526020016000206000848152602001908152602001600020541015612ba2576040517f08c379a0000000000000000000000000000000000000000000000000000000008152600401612b9990613b81565b60405180910390fd5b612c0583600360003373ffffffffffffffffffffffffffffffffffffffff1673ffffffffffffffffffffffffffffffffffffffff16815260200190815260200160002060008581526020019081526020016000205461350990919063ffffffff16565b600360003373ffffffffffffffffffffffffffffffffffffffff1673ffffffffffffffffffffffffffffffffffffffff1681526020019081526020016000206000848152602001908152602001600020819055506001600083815260200190815260200160002060010160009054906101000a900473ffffffffffffffffffffffffffffffffffffffff1673ffffffffffffffffffffffffffffffffffffffff1663a9059cbb33856040518363ffffffff1660e01b8152600401612cca929190613ad2565b602060405180830381600087803b158015612ce457600080fd5b505af1158015612cf8573d6000803e3d6000fd5b505050506040513d601f19601f82011682018060405250810190612d1c91906135ed565b50505050565b6060600560008481526020019081526020016000206000836001811115612d72577f4e487b7100000000000000000000000000000000000000000000000000000000600052602160045260246000fd5b8152602001908152602001600020805480602002602001604051908101604052809291908181526020016000905b82821015612ee157838290600052602060002090600602016040518060e0016040529081600082015481526020016001820160009054906101000a900473ffffffffffffffffffffffffffffffffffffffff1673ffffffffffffffffffffffffffffffffffffffff1673ffffffffffffffffffffffffffffffffffffffff1681526020016001820160149054906101000a900460ff166001811115612e6e577f4e487b7100000000000000000000000000000000000000000000000000000000600052602160045260246000fd5b6001811115612ea6577f4e487b7100000000000000000000000000000000000000000000000000000000600052602160045260246000fd5b815260200160028201548152602001600382015481526020016004820154815260200160058201548152505081526020019060010190612da0565b50505050905092915050565b80600360003373ffffffffffffffffffffffffffffffffffffffff1673ffffffffffffffffffffffffffffffffffffffff16815260200190815260200160002060007f45544800000000000000000000000000000000000000000000000000000000008152602001908152602001600020541015612fa0576040517f08c379a0000000000000000000000000000000000000000000000000000000008152600401612f9790613b81565b60405180910390fd5b61302381600360003373ffffffffffffffffffffffffffffffffffffffff1673ffffffffffffffffffffffffffffffffffffffff16815260200190815260200160002060007f455448000000000000000000000000000000000000000000000000000000000081526020019081526020016000205461350990919063ffffffff16565b600360003373ffffffffffffffffffffffffffffffffffffffff1673ffffffffffffffffffffffffffffffffffffffff16815260200190815260200160002060007f45544800000000000000000000000000000000000000000000000000000000008152602001908152602001600020819055503373ffffffffffffffffffffffffffffffffffffffff16816040516130bb90613a6b565b60006040518083038185875af1925050503d80600081146130f8576040519150601f19603f3d011682016040523d82523d6000602084013e6130fd565b606091505b50505050565b80600073ffffffffffffffffffffffffffffffffffffffff166001600083815260200190815260200160002060010160009054906101000a900473ffffffffffffffffffffffffffffffffffffffff1673ffffffffffffffffffffffffffffffffffffffff1614156131aa576040517f08c379a00000000000000000000000000000000000000000000000000000000081526004016131a190613be1565b60405180910390fd5b6001600083815260200190815260200160002060010160009054906101000a900473ffffffffffffffffffffffffffffffffffffffff1673ffffffffffffffffffffffffffffffffffffffff166323b872dd3330866040518463ffffffff1660e01b815260040161321d93929190613a9b565b602060405180830381600087803b15801561323757600080fd5b505af115801561324b573d6000803e3d6000fd5b505050506040513d601f19601f8201168201806040525081019061326f91906135ed565b506132d383600360003373ffffffffffffffffffffffffffffffffffffffff1673ffffffffffffffffffffffffffffffffffffffff1681526020019081526020016000206000858152602001908152602001600020546134d590919063ffffffff16565b600360003373ffffffffffffffffffffffffffffffffffffffff1673ffffffffffffffffffffffffffffffffffffffff168152602001908152602001600020600084815260200190815260200160002081905550505050565b613334613501565b73ffffffffffffffffffffffffffffffffffffffff166133526115e4565b73ffffffffffffffffffffffffffffffffffffffff16146133a8576040517f08c379a000000000000000000000000000000000000000000000000000000000815260040161339f90613bc1565b60405180910390fd5b600073ffffffffffffffffffffffffffffffffffffffff168173ffffffffffffffffffffffffffffffffffffffff161415613418576040517f08c379a000000000000000000000000000000000000000000000000000000000815260040161340f90613b61565b60405180910390fd5b8073ffffffffffffffffffffffffffffffffffffffff1660008054906101000a900473ffffffffffffffffffffffffffffffffffffffff1673ffffffffffffffffffffffffffffffffffffffff167f8be0079c531659141344cd1fd0a4f28419497f9722a3daafe3b4186f6b6457e060405160405180910390a3806000806101000a81548173ffffffffffffffffffffffffffffffffffffffff021916908373ffffffffffffffffffffffffffffffffffffffff16021790555050565b600081836134e39190613ce0565b905092915050565b600081836134f99190613d36565b905092915050565b600033905090565b600081836135179190613d90565b905092915050565b60008135905061352e81614016565b92915050565b6000815190506135438161402d565b92915050565b60008135905061355881614044565b92915050565b60008135905061356d8161405b565b92915050565b6000813590506135828161406b565b92915050565b60006020828403121561359a57600080fd5b60006135a88482850161351f565b91505092915050565b600080604083850312156135c457600080fd5b60006135d28582860161351f565b92505060206135e385828601613549565b9150509250929050565b6000602082840312156135ff57600080fd5b600061360d84828501613534565b91505092915050565b60006020828403121561362857600080fd5b600061363684828501613549565b91505092915050565b6000806040838503121561365257600080fd5b600061366085828601613549565b92505060206136718582860161351f565b9150509250929050565b6000806040838503121561368e57600080fd5b600061369c85828601613549565b92505060206136ad8582860161355e565b9150509250929050565b6000806000606084860312156136cc57600080fd5b60006136da86828701613549565b93505060206136eb86828701613573565b92505060406136fc86828701613573565b9150509250925092565b60008060006060848603121561371b57600080fd5b60006137298682870161355e565b935050602061373a86828701613549565b925050604061374b86828701613573565b9150509250925092565b6000806000806080858703121561376b57600080fd5b60006137798782880161355e565b945050602061378a87828801613549565b935050604061379b87828801613573565b92505060606137ac87828801613573565b91505092959194509250565b6000602082840312156137ca57600080fd5b60006137d884828501613573565b91505092915050565b600080604083850312156137f457600080fd5b600061380285828601613573565b925050602061381385828601613549565b9150509250929050565b600061382983836139bf565b60e08301905092915050565b61383e81613dc4565b82525050565b61384d81613dc4565b82525050565b600061385e82613c9b565b6138688185613cb3565b935061387383613c8b565b8060005b838110156138a457815161388b888261381d565b975061389683613ca6565b925050600181019050613877565b5085935050505092915050565b6138ba81613de2565b82525050565b6138c981613de2565b82525050565b6138d881613e29565b82525050565b6138e781613e29565b82525050565b60006138fa602683613ccf565b915061390582613f0c565b604082019050919050565b600061391d601283613ccf565b915061392882613f5b565b602082019050919050565b6000613940601383613ccf565b915061394b82613f84565b602082019050919050565b6000613963602083613ccf565b915061396e82613fad565b602082019050919050565b6000613986600083613cc4565b915061399182613fd6565b600082019050919050565b60006139a9601483613ccf565b91506139b482613fd9565b602082019050919050565b60e0820160008201516139d56000850182613a4d565b5060208201516139e86020850182613835565b5060408201516139fb60408501826138cf565b506060820151613a0e60608501826138b1565b506080820151613a216080850182613a4d565b5060a0820151613a3460a0850182613a4d565b5060c0820151613a4760c0850182613a4d565b50505050565b613a5681613e1f565b82525050565b613a6581613e1f565b82525050565b6000613a7682613979565b9150819050919050565b6000602082019050613a956000830184613844565b92915050565b6000606082019050613ab06000830186613844565b613abd6020830185613844565b613aca6040830184613a5c565b949350505050565b6000604082019050613ae76000830185613844565b613af46020830184613a5c565b9392505050565b60006020820190508181036000830152613b158184613853565b905092915050565b6000602082019050613b3260008301846138c0565b92915050565b6000604082019050613b4d60008301856138c0565b613b5a6020830184613844565b9392505050565b60006020820190508181036000830152613b7a816138ed565b9050919050565b60006020820190508181036000830152613b9a81613910565b9050919050565b60006020820190508181036000830152613bba81613933565b9050919050565b60006020820190508181036000830152613bda81613956565b9050919050565b60006020820190508181036000830152613bfa8161399c565b9050919050565b6000602082019050613c166000830184613a5c565b92915050565b600060e082019050613c31600083018a613a5c565b613c3e6020830189613844565b613c4b60408301886138de565b613c5860608301876138c0565b613c656080830186613a5c565b613c7260a0830185613a5c565b613c7f60c0830184613a5c565b98975050505050505050565b6000819050602082019050919050565b600081519050919050565b6000602082019050919050565b600082825260208201905092915050565b600081905092915050565b600082825260208201905092915050565b6000613ceb82613e1f565b9150613cf683613e1f565b9250827fffffffffffffffffffffffffffffffffffffffffffffffffffffffffffffffff03821115613d2b57613d2a613eae565b5b828201905092915050565b6000613d4182613e1f565b9150613d4c83613e1f565b9250817fffffffffffffffffffffffffffffffffffffffffffffffffffffffffffffffff0483118215151615613d8557613d84613eae565b5b828202905092915050565b6000613d9b82613e1f565b9150613da683613e1f565b925082821015613db957613db8613eae565b5b828203905092915050565b6000613dcf82613dff565b9050919050565b60008115159050919050565b6000819050919050565b6000819050613dfa82614002565b919050565b600073ffffffffffffffffffffffffffffffffffffffff82169050919050565b6000819050919050565b6000613e3482613dec565b9050919050565b6000613e4682613e1f565b91506000821415613e5a57613e59613eae565b5b600182039050919050565b6000613e7082613e1f565b91507fffffffffffffffffffffffffffffffffffffffffffffffffffffffffffffffff821415613ea357613ea2613eae565b5b600182019050919050565b7f4e487b7100000000000000000000000000000000000000000000000000000000600052601160045260246000fd5b7f4e487b7100000000000000000000000000000000000000000000000000000000600052602160045260246000fd5b7f4f776e61626c653a206e6577206f776e657220697320746865207a65726f206160008201527f6464726573730000000000000000000000000000000000000000000000000000602082015250565b7f496e7375666669656e742062616c616e63650000000000000000000000000000600082015250565b7f496e737566666963656e742062616c616e636500000000000000000000000000600082015250565b7f4f776e61626c653a2063616c6c6572206973206e6f7420746865206f776e6572600082015250565b50565b7f746f6b656e20646f6573206e6f74206578697374000000000000000000000000600082015250565b6002811061401357614012613edd565b5b50565b61401f81613dc4565b811461402a57600080fd5b50565b61403681613dd6565b811461404157600080fd5b50565b61404d81613de2565b811461405857600080fd5b50565b6002811061406857600080fd5b50565b61407481613e1f565b811461407f57600080fd5b5056fea26469706673582212202cf0db05c4d422c4396b21d1ff0a936a3905b74e30e9988262c14170cbc1964f64736f6c63430008030033",
  "immutableReferences": {},
  "source": "// SPDX-License-Identifier: MIT\r\n\r\npragma solidity >=0.4.22 <0.9.0;\r\npragma experimental ABIEncoderV2;\r\n\r\nimport \"./wallet.sol\";\r\n\r\ncontract Dex is Wallet {\r\n\r\n    using SafeMath for uint256;\r\n\r\n    enum Side {\r\n        BUY,\r\n        SELL\r\n    }\r\n\r\n    struct Order {\r\n        uint id;\r\n        address trader;\r\n        Side side;\r\n        bytes32 ticker;\r\n        uint amount;\r\n        uint price;\r\n        uint filled;\r\n    }\r\n\r\n    uint public nextOrderId = 0;\r\n\r\n    mapping(bytes32 => mapping(uint256 => Order[])) public orderBook;\r\n\r\n    function getOrderBook(bytes32 ticker, Side side) view public returns(Order[] memory) {\r\n        return orderBook[ticker][uint(side)];\r\n    }\r\n\r\n    function createLimitOrder(Side side, bytes32 ticker, uint amount, uint price) public {\r\n        if(side == Side.BUY){\r\n            require(balances[msg.sender][\"ETH\"] >= amount.mul(price));\r\n        }\r\n        else if(side == Side.SELL){\r\n            require(balances[msg.sender][ticker] >= amount);\r\n        }\r\n\r\n        Order[] storage orders = orderBook[ticker][uint(side)];\r\n        uint filled; //My fix off the argument count (6 and 7) in the Order struct\r\n        orders.push(\r\n            Order(nextOrderId, msg.sender, side, ticker, amount, price, filled));\r\n\r\n        //a shorter version of an \"if\" statement\r\n        uint i = orders.length > 0 ? orders.length - 1 : 0;\r\n\r\n        if(side == Side.BUY){\r\n            while(i > 0){\r\n                if(orders[i-1].price > orders[i].price){\r\n                    break;\r\n                }\r\n                Order memory orderToMove = orders[i - 1];\r\n                orders[i -1] = orders[i];\r\n                orders[i] = orderToMove;\r\n                i--;\r\n            }\r\n        }\r\n        else if(side == Side.SELL){\r\n             while(i > 0){\r\n                if(orders[i-1].price < orders[i].price){\r\n                    break;\r\n                }\r\n                Order memory orderToMove = orders[i - 1];\r\n                orders[i -1] = orders[i];\r\n                orders[i] = orderToMove;\r\n                i--;\r\n            }\r\n        }\r\n\r\n        nextOrderId++;\r\n    }\r\n\r\n    function createMarketOrder(Side side, bytes32 ticker, uint amount) public{\r\n        if(side == Side.SELL){\r\n        require(balances[msg.sender][ticker] >= amount, \"Insufficent balance\");\r\n        }\r\n\r\n        uint orderBookSide;\r\n        if(side == Side.BUY){\r\n            orderBookSide = 1;\r\n        }\r\n        else{\r\n            orderBookSide = 0;\r\n        }\r\n        Order[] storage orders = orderBook[ticker][uint(orderBookSide)];\r\n\r\n        uint totalFilled;\r\n\r\n        for (uint256 i = 0; i < orders.length && totalFilled < amount; i++) {\r\n            uint leftToFill = amount.sub(totalFilled);\r\n            uint availableToFill = orders[i].amount.sub(orders[i].filled); //order.amount - order.filled\r\n            uint filled = 0;\r\n            if(availableToFill > leftToFill){\r\n                filled = leftToFill; //Fill the entire market order\r\n            }\r\n            else{ //availableToFill <= leftTofill\r\n                filled = availableToFill; //Fill as much as is available in order[i]\r\n            }\r\n\r\n            totalFilled = totalFilled.add(filled);\r\n            orders[i].filled = orders[i].filled.add(filled);\r\n            uint cost = filled.mul(orders[i].price);\r\n\r\n            if(side == Side.BUY){\r\n                //Verify that the buyer has enough ETH to cover the purchase (require)\r\n                require(balances[msg.sender][\"ETH\"] >= filled.mul(orders[i].price));\r\n                //msg.sender is the buyer\r\n                balances[msg.sender][ticker] = balances[msg.sender][ticker].add(filled);\r\n                balances[msg.sender][\"ETH\"] = balances[msg.sender][\"ETH\"].sub(cost);\r\n\r\n                balances[orders[i].trader][ticker] = balances[orders[i].trader][ticker].sub(filled);\r\n                balances[orders[i].trader][\"ETH\"] = balances[orders[i].trader][\"ETH\"].add(cost);\r\n                //Transefer ETH from Buyer to Seller\r\n                //Transfer Tokens from Seller to Buyer\r\n            }\r\n            else if(side == Side.SELL){\r\n                //msg.sender is the seller\r\n                balances[msg.sender][ticker] = balances[msg.sender][ticker].sub(filled);\r\n                balances[msg.sender][\"ETH\"] = balances[msg.sender][\"ETH\"].add(cost);\r\n\r\n                balances[orders[i].trader][ticker] = balances[orders[i].trader][ticker].add(filled);\r\n                balances[orders[i].trader][\"ETH\"] = balances[orders[i].trader][\"ETH\"].sub(cost);\r\n                \r\n                //Transefer ETH from Buyer to Seller\r\n                //Transfer Tokens from Seller to Buyer\r\n            }\r\n                \r\n        }\r\n\r\n            while(orders.length > 0 && orders[0].filled == orders[0].amount){\r\n                for (uint256 i = 0; i < orders.length - 1; i++) {\r\n                    orders[i] = orders[i + 1];\r\n                }\r\n                orders.pop();\r\n            }\r\n        //Loop through the orderbook and remove 100% filled orders\r\n    }\r\n\r\n}",
  "sourcePath": "C:/Users/koval/Documents/ethereum-201/DEX/contracts/dex.sol",
  "compiler": {
    "name": "solc",
    "version": "0.8.3+commit.8d00100c.Emscripten.clang"
  },
  "schemaVersion": "3.3.4",
  "updatedAt": "2021-05-01T11:04:16.478Z",
  "devdoc": {
    "kind": "dev",
    "methods": {
      "owner()": {
        "details": "Returns the address of the current owner."
      },
      "renounceOwnership()": {
        "details": "Leaves the contract without owner. It will not be possible to call `onlyOwner` functions anymore. Can only be called by the current owner. NOTE: Renouncing ownership will leave the contract without an owner, thereby removing any functionality that is only available to the owner."
      },
      "transferOwnership(address)": {
        "details": "Transfers ownership of the contract to a new account (`newOwner`). Can only be called by the current owner."
      }
    },
    "version": 1
  },
  "userdoc": {
    "kind": "user",
    "methods": {},
    "version": 1
  }
}