{
  "contractName": "Dogs",
  "abi": [
    {
      "inputs": [],
      "stateMutability": "nonpayable",
      "type": "constructor"
    },
    {
      "inputs": [],
      "name": "_initialized",
      "outputs": [
        {
          "internalType": "bool",
          "name": "",
          "type": "bool"
        }
      ],
      "stateMutability": "view",
      "type": "function"
    },
    {
      "inputs": [],
      "name": "owner",
      "outputs": [
        {
          "internalType": "address",
          "name": "",
          "type": "address"
        }
      ],
      "stateMutability": "view",
      "type": "function"
    },
    {
      "inputs": [],
      "name": "getNumberOfDogs",
      "outputs": [
        {
          "internalType": "uint256",
          "name": "",
          "type": "uint256"
        }
      ],
      "stateMutability": "view",
      "type": "function"
    },
    {
      "inputs": [
        {
          "internalType": "uint256",
          "name": "toSet",
          "type": "uint256"
        }
      ],
      "name": "setNumberOfDogs",
      "outputs": [],
      "stateMutability": "nonpayable",
      "type": "function"
    }
  ],
  "bytecode": "0x608060405234801561001057600080fd5b5033600560006101000a81548173ffffffffffffffffffffffffffffffffffffffff021916908373ffffffffffffffffffffffffffffffffffffffff160217905550610304806100616000396000f3fe608060405234801561001057600080fd5b506004361061004c5760003560e01c806314861b22146100515780631680a5ed1461006d5780633072cf601461008b5780638da5cb5b146100a9575b600080fd5b61006b6004803603810190610066919061015c565b6100c7565b005b6100756100eb565b6040516100829190610220565b60405180910390f35b61009361010e565b6040516100a09190610205565b60405180910390f35b6100b1610121565b6040516100be91906101ea565b60405180910390f35b8060006040516100d6906101d5565b90815260200160405180910390208190555050565b6000806040516100fa906101d5565b908152602001604051809103902054905090565b600560149054906101000a900460ff1681565b600560009054906101000a900473ffffffffffffffffffffffffffffffffffffffff1681565b600081359050610156816102b7565b92915050565b60006020828403121561016e57600080fd5b600061017c84828501610147565b91505092915050565b61018e81610246565b82525050565b61019d81610258565b82525050565b60006101b060048361023b565b91506101bb8261028e565b600482019050919050565b6101cf81610284565b82525050565b60006101e0826101a3565b9150819050919050565b60006020820190506101ff6000830184610185565b92915050565b600060208201905061021a6000830184610194565b92915050565b600060208201905061023560008301846101c6565b92915050565b600081905092915050565b600061025182610264565b9050919050565b60008115159050919050565b600073ffffffffffffffffffffffffffffffffffffffff82169050919050565b6000819050919050565b7f446f677300000000000000000000000000000000000000000000000000000000600082015250565b6102c081610284565b81146102cb57600080fd5b5056fea26469706673582212201e03a72b4c1a9e49c751c953cfe95f39191bb859394c29cc6b98f693fb7233b164736f6c63430008030033",
  "immutableReferences": {},
  "source": "// SPDX-License-Identifier: MIT\r\npragma solidity >=0.4.22 <0.9.0;\r\n\r\nimport \"./Storage.sol\";\r\n\r\ncontract Dogs is Storage {\r\n\r\n    modifier onlyOwner() {\r\n        require(msg.sender == owner);\r\n        _;\r\n    }\r\n\r\n    constructor() public {\r\n        owner = msg.sender;\r\n    }\r\n\r\n    function getNumberOfDogs() public view returns(uint) {\r\n        return _uintStorage[\"Dogs\"];\r\n    }\r\n    function setNumberOfDogs(uint toSet) public {\r\n        _uintStorage[\"Dogs\"] = toSet;\r\n    }\r\n}",
  "sourcePath": "C:/Users/koval/Documents/ethereum-201/DEX/contracts/Dogs.sol",
  "compiler": {
    "name": "solc",
    "version": "0.8.3+commit.8d00100c.Emscripten.clang"
  },
  "schemaVersion": "3.3.4",
  "updatedAt": "2021-05-01T11:04:16.377Z",
  "devdoc": {
    "kind": "dev",
    "methods": {},
    "version": 1
  },
  "userdoc": {
    "kind": "user",
    "methods": {},
    "version": 1
  }
}