{
  "contractName": "Overflow",
  "abi": [
    {
      "inputs": [],
      "name": "contribute",
      "outputs": [],
      "stateMutability": "payable",
      "type": "function"
    },
    {
      "inputs": [],
      "name": "getBalance",
      "outputs": [
        {
          "internalType": "uint256",
          "name": "",
          "type": "uint256"
        }
      ],
      "stateMutability": "view",
      "type": "function"
    }
  ],
  "bytecode": "0x608060405234801561001057600080fd5b50610158806100206000396000f3fe6080604052600436106100295760003560e01c806312065fe01461002e578063d7bb99ba14610059575b600080fd5b34801561003a57600080fd5b50610043610063565b60405161005091906100fd565b60405180910390f35b6100616100a9565b005b60008060003373ffffffffffffffffffffffffffffffffffffffff1673ffffffffffffffffffffffffffffffffffffffff16815260200190815260200160002054905090565b346000803373ffffffffffffffffffffffffffffffffffffffff1673ffffffffffffffffffffffffffffffffffffffff16815260200190815260200160002081905550565b6100f781610118565b82525050565b600060208201905061011260008301846100ee565b92915050565b600081905091905056fea264697066735822122091d754d398a5249689a05d8c4734e1fcefbeb623e9425d7a04d4c021adc8c50e64736f6c63430008030033",
  "immutableReferences": {},
  "source": "pragma solidity >=0.4.22 <0.9.0;\r\n\r\ncontract Overflow{\r\n    mapping(address => uint) balances;\r\n\r\n    function contribute() payable public{\r\n        balances[msg.sender] = msg.value;\r\n    }\r\n\r\n    function getBalance() view public returns (uint) {\r\n        return balances[msg.sender];\r\n    }\r\n\r\n}",
  "sourcePath": "C:/Users/koval/Documents/ethereum-201/DEX/contracts/exercise.sol",
  "compiler": {
    "name": "solc",
    "version": "0.8.3+commit.8d00100c.Emscripten.clang"
  },
  "schemaVersion": "3.3.4",
  "updatedAt": "2021-05-01T11:04:16.534Z",
  "devdoc": {
    "kind": "dev",
    "methods": {},
    "version": 1
  },
  "userdoc": {
    "kind": "user",
    "methods": {},
    "version": 1
  }
}